:020000040800F2
:1000000000500020150E00085B0E00085D0E000871
:100010005F0E0008610E0008630E0008000000007B
:10002000000000000000000000000000650E000855
:10003000670E000800000000690E00086B0E000843
:100040006F0E0008710E0008730E0008750E000890
:10005000770E0008790E00087B0E00087D0E000860
:100060007F0E0008810E0008830E0008850E000830
:10007000870E0008890E00088B0E00088D0E000800
:100080008F0E0008910E0008930E0008950E0008D0
:10009000970E0008990E00089B0E00089D0E0008A0
:1000A0009F0E0008A10E0008A30E0008A50E000870
:1000B0003D0B0008A90E0008AB0E0008AD0E0008AD
:1000C000AF0E0008B10E0008B30E0008B50E000810
:1000D000B70E0008490D0008BB0E0008F90C000817
:1000E000BF0E0008C10E0008C30E000810B5054C75
:1000F000237833B9044B13B10448AFF300800123D4
:10010000237010BD7C00002000000000EC100008EF
:10011000084B10B51BB108490848AFF300800848E8
:10012000036803B910BD074B002BFBD0BDE810409E
:10013000184700BF0000000080000020EC100008FD
:100140007C00002000000000154B002B08BF134B63
:100150009D46A3F5803A00218B460F461348144A6A
:10016000121A00F0A7FF0F4B002B00D098470E4B40
:10017000002B00D098470020002104000D000D48FE
:10018000002802D00C48AFF3008000F06DFF200083
:10019000290000F011FE00F053FF00BF000008002E
:1001A0000050002000000000000000007C00002043
:1001B000A0020020000000000000000080B487B012
:1001C00000AF786000237B6100233B610F23FB605D
:1001D0007B68DB78002B3AD0274BDB68DB4303F4EA
:1001E000E0631B0A7B617B69C3F104033B61FA682E
:1001F0007B6922FA03F3FB607B685B781A463B69F4
:1002000002FA03F37B617B689B781A46FB68134014
:100210007A6913437B617B691B017B61174A7B68A9
:100220001B787969C9B213440A4683F80023134A3C
:100230007B681B785B09DBB218467B681B7803F090
:100240001F03012101FA03F342F820300FE00B49AC
:100250007B681B785B09DBB218467B681B7803F070
:100260001F0301229A4000F1200341F8232000BF20
:100270001C37BD4680BC704700ED00E000E100E0A7
:1002800080B489B000AF786039600023FB6100233F
:100290003B610023BB610023FB6000237B610023E3
:1002A000BB603B68DB7803F00F03FB613B68DB78E6
:1002B00003F01003002B05D03B689B781A46FB69BE
:1002C0001343FB613B681B88DBB2002B44D07B6887
:1002D0001B687B610023BB6138E00122BB6902FA25
:1002E00003F3FB603B681B881A46FB6813403B61C5
:1002F0003A69FB689A4226D1BB699B00FB600F22DA
:10030000FB6802FA03F3BB60BB68DB437A69134006
:100310007B61FA69FB6802FA03F37A6913437B6134
:100320003B68DB78282B05D10122BB699A407B68AA
:100330005A6108E03B68DB78482B04D10122BB6995
:100340009A407B681A61BB690133BB61BB69072BAB
:10035000C3D97B687A691A603B681B88FF2B46D932
:100360007B685B687B610023BB613AE0BB69083353
:10037000012202FA03F3FB603B681B881A46FB6804
:1003800013403B613A69FB689A4227D1BB699B00E5
:10039000FB600F22FB6802FA03F3BB60BB68DB4320
:1003A0007A6913407B61FA69FB6802FA03F37A69A0
:1003B00013437B613B68DB78282B05D1BB6908338D
:1003C00001229A407B685A613B68DB78482B05D153
:1003D000BB69083301229A407B681A61BB6901330B
:1003E000BB61BB69072BC1D97B687A695A6000BFC2
:1003F0002437BD4680BC704780B483B000AF7860BE
:100400000B467B807A887B681A6100BF0C37BD463B
:1004100080BC704780B483B000AF78600B467B80AF
:100420007A887B685A6100BF0C37BD4680BC704734
:1004300080B487B000AF786000237B6100233B610C
:100440000023FB600023BB604C4B5B6803F00C0394
:100450007B617B69042B07D0082B09D0002B33D19B
:100460007B68474A1A6033E07B68454A1A602FE090
:10047000424B5B6803F470133B61404B5B6803F4D1
:100480008033FB603B699B0C02333B61FB68002BB4
:1004900006D13B693B4A02FB03F27B681A6017E016
:1004A000364B5B6803F40033002B06D03B69354ABA
:1004B00002FB03F27B681A600AE03B69304A02FBE8
:1004C00003F27B681A6003E07B682D4A1A6000BF64
:1004D0002A4B5B6803F0F0037B617B691B097B613E
:1004E000294A7B6913441B78DBB2BB607B681A68BE
:1004F000BB68DA407B685A60204B5B6803F4E063BA
:100500007B617B691B0A7B611F4A7B6913441B78F3
:10051000DBB2BB607B685A68BB68DA407B689A6074
:10052000164B5B6803F460537B617B69DB0A7B617C
:10053000154A7B6913441B78DBB2BB607B685A6841
:10054000BB68DA407B68DA600C4B5B6803F44043BD
:100550007B617B699B0B7B610C4A7B6913441B7835
:10056000DBB2BB607B68DA68BB68B2FBF3F27B6826
:100570001A6100BF1C37BD4680BC704700100240A6
:1005800000127A0000093D00000000201000002049
:1005900080B483B000AF78600B46FB70FB78002B13
:1005A00006D00949084B9A697B6813438B6106E0C2
:1005B0000549054B9A697B68DB4313408B6100BF9B
:1005C0000C37BD4680BC70470010024080B483B039
:1005D00000AF78600B46FB70FB78002B06D0094912
:1005E000084BDA697B681343CB6106E00549054B8C
:1005F000DA697B68DB431340CB6100BF0C37BD4633
:1006000080BC70470010024080B485B000AF7860B5
:1006100039600023FB817B681B88FB817B682E4A45
:10062000934213D07B682D4A93420FD07B68B3F17D
:10063000804F0BD07B682A4A934207D07B68294AB7
:10064000934203D07B68284A934208D1FB8923F068
:100650007003FB813B685A88FB891343FB817B68ED
:10066000224A93420CD07B68214A934208D0FB89EE
:1006700023F44073FB813B68DA88FB891343FB81D9
:100680007B68FA891A803B689A887B689A853B6800
:100690001A887B681A857B680F4A93420FD07B6863
:1006A0000E4A93420BD07B68124A934207D07B6874
:1006B000114A934203D07B68104A934204D13B68AD
:1006C0001B7A9AB27B681A867B6801229A8200BFE5
:1006D0001437BD4680BC7047002C014000340140F7
:1006E0000004004000080040000C004000100040E2
:1006F0000014004000400140004401400048014017
:1007000080B483B000AF78600B46FB70FB78002BA1
:1007100008D07B681B889BB243F001039AB27B68C8
:100720001A8007E07B681B889BB223F001039AB212
:100730007B681A8000BF0C37BD4680BC704700BF85
:1007400080B483B000AF78600B467B8013467B702B
:100750007B78002B08D07B689B899AB27B881343F7
:100760009AB27B689A8109E07B689B899AB27B8800
:10077000DB439BB213409AB27B689A8100BF0C376F
:10078000BD4680BC704700BF80B485B000AF7860C4
:100790000B467B800023FB737B681B8A9AB27B88A5
:1007A00013409BB2002B02D00123FB7301E0002316
:1007B000FB73FB7B18461437BD4680BC704700BFF7
:1007C00080B483B000AF78600B467B807B88DB43CE
:1007D0009AB27B681A8200BF0C37BD4680BC704756
:1007E00080B58CB000AF786039600023FB620023D5
:1007F000BB6200237B6200233B620023FB617B68BA
:10080000FB617B681B8A9BB2FB62FA6A4CF6FF7342
:100810001340FB623B68DB881A46FB6A1343FB62AA
:10082000FB6A9AB27B681A827B689B899BB2FB62E7
:10083000FA6A4EF6F3131340FB623B689A883B68F2
:100840001B8913439AB23B685B8913439BB21A46D8
:10085000FB6A1343FB62FB6A9AB27B689A817B68EE
:100860009B8A9BB2FB62FA6A4FF6FF431340FB621E
:100870003B689B891A46FB6A1343FB62FB6A9AB288
:100880007B689A8207F108031846FFF7D1FDFB69E0
:100890002E4A934202D17B69BB6201E03B69BB6295
:1008A0007B689B899BB21BB2002B0CDABA6A134699
:1008B0009B0013449A001A443B681B685B00B2FB20
:1008C000F3F37B620BE0BA6A13469B0013449A0071
:1008D0001A443B681B689B00B2FBF3F37B627B6AA4
:1008E0001B4AA2FB03235B091B01FB62FB6A1B097A
:1008F000642202FB03F37A6AD31A3B627B689B890A
:100900009BB21BB2002B0CDA3B6ADB003233104A7D
:10091000A2FB03235B0903F00703FA6A1343FB629C
:100920000BE03B6A1B013233094AA2FB03235B093C
:1009300003F00F03FA6A1343FB62FB6A9AB27B6807
:100940001A8100BF3037BD4680BD00BF003801406E
:100950001F85EB5180B483B000AF78600B46FB700D
:10096000FB78002B08D07B689B899BB243F4005333
:100970009AB27B689A8107E07B689B899BB223F4DB
:1009800000539AB27B689A8100BF0C37BD4680BC89
:10099000704700BF80B487B000AF78600B467B80A3
:1009A00013467B7000233B610023FB600023BB6088
:1009B00000237B617B687B617B88DBB25B09DBB2F8
:1009C0003B617B8803F01F03FB600122FB6802FA96
:1009D00003F3BB603B69012B03D17B690C337B6163
:1009E00009E03B69022B03D17B6910337B6102E094
:1009F0007B6914337B617B78002B06D07B697A6935
:100A00001168BA680A431A6006E07B697A6911685E
:100A1000BA68D2430A401A6000BF1C37BD4680BC8A
:100A2000704700BF80B483B000AF78600B467B8016
:100A30007B88C3F308039AB27B689A8000BF0C37A7
:100A4000BD4680BC704700BF80B483B000AF786003
:100A50007B689B889BB2C3F308039BB218460C3794
:100A6000BD4680BC704700BF80B485B000AF7860E1
:100A70000B467B800023FB737B681B889AB27B88C4
:100A800013409BB2002B02D00123FB7301E0002333
:100A9000FB73FB7B18461437BD4680BC704700BF14
:100AA00080B483B000AF0346FB71084997F9073063
:100AB0005B09FA7902F01F02012000FA02F241F804
:100AC000232000BF0C37BD4680BC704700E100E02A
:100AD00080B584B000AF01210120FFF777FD48F613
:100AE0009F43BB8041F26F733B810023FB803B1D22
:100AF00019464FF08040FFF787FD01214FF08040FD
:100B0000FFF75EFE012201214FF08040FFF718FE43
:100B100001214FF08040FFF7F3FD1C233B700123C0
:100B2000FB7000237B700023BB703B461846FFF729
:100B300045FB00BF1037BD4680BD00BF80B500AF8C
:100B400001214FF08040FFF71FFE0346002B04D029
:100B500001214FF08040FFF733FE00BF80BD00BF92
:100B600080B483B000AF78600B46FB70094A094B34
:100B70001B6923F004031361FB78012B01D130BF03
:100B800002E040BF20BF20BF00BF0C37BD4680BC85
:100B9000704700BF00ED00E080B582B000AF0121DA
:100BA0001020FFF7F5FC1023FB714FF40053BB80BE
:100BB0000123BB713B1D19460348FFF761FB00BFD2
:100BC0000837BD4680BD00BF0010014080B588B029
:100BD00000AF786001210820FFF7DAFC01214FF413
:100BE0008020FFF7F3FC4FF48063BB811823FB7375
:100BF0000323BB7307F10C0319461848FFF740FBAA
:100C00004FF40063BB810423FB7307F10C03194607
:100C10001248FFF735FB7B683B610023BB82002352
:100C2000FB8200233B830023BB830C237B8307F1E0
:100C3000100319460A48FFF7D3FD012240F225515F
:100C40000748FFF7A7FE2720FFF72AFF01210448E6
:100C5000FFF780FE00BF2037BD4680BD000C01407D
:100C60000048004080B582B000AF78600B46FB7052
:100C70007B6800229A80FB789BB219467868FFF760
:100C8000D1FE00BF80217868FFF7EEFE0346002BFF
:100C9000F8D000BF0837BD4680BD00BF80B582B028
:100CA00000AF7860396008E03B681B7819467868C7
:100CB000FFF7D8FF3B6801333B603B681B78002B94
:100CC000F2D100BF0837BD4680BD00BF80B584B0FB
:100CD00000AF786000BF20217868FFF7C5FE0346AB
:100CE000002BF8D07868FFF7AFFE0346FB73FB7B61
:100CF00018461037BD4680BD80B582B000AF0F48A2
:100D0000FFF7E4FF0346FB710D4B1B7819460D4AB4
:100D1000FB7953540A4B1B780133DAB2084B1A7033
:100D2000074B1B78013B074AD35C0A2B02D1044BCB
:100D300000221A7000BF0837BD4680BD0048004041
:100D4000980000209C00002080B582B000AF0F48C2
:100D5000FFF7BCFF0346FB710D4B1B7819460D4A8C
:100D6000FB7953540A4B1B780133DAB2084B1A70E3
:100D7000074B1B78013B074AD35C0A2B02D1044B7B
:100D800000221A7000BF0837BD4680BD0038014000
:100D900099000020A001002080B483B000AF7860EB
:100DA00000E000BF7B685A1E7A60002BF9D100BFBB
:100DB0000C37BD4680BC704780B500AF01214FF0B5
:100DC0008050FFF703FCFFF783FEFFF7E5FE4FF4CB
:100DD0001650FFF7FBFE0B490B48FFF75FFF0B4870
:100DE000FFF7DAFF4FF400510948FFF705FB022136
:100DF0000020FFF7B5FE4FF400510548FFF70AFB4E
:100E0000EDE700BFE01000080048004060E3160076
:100E1000001001400649074A074B9A42BEBF51F8ED
:100E2000040B42F8040BF8E70448804704480047E5
:100E3000F8100008000000207C000020CD0E000803
:100E4000490100081F49204A002301E041F8043B02
:100E50009142FBD3FFF7B0FFFEE7FEE7FEE7FEE7B8
:100E6000FEE7FEE7FEE7FEE7FEE7FEE7FEE7FEE75A
:100E7000FEE7FEE7FEE7FEE7FEE7FEE7FEE7FEE74A
:100E8000FEE7FEE7FEE7FEE7FEE7FEE7FEE7FEE73A
:100E9000FEE7FEE7FEE7FEE7FEE7FEE7FEE7FEE72A
:100EA000FEE7FEE7FEE7FEE7FEE7FEE7FEE7FEE71A
:100EB000FEE7FEE7FEE7FEE7FEE7FEE7FEE7FEE70A
:100EC000FEE7FEE77C000020A002002080B500AF16
:100ED000154A154B1B6843F0010313601249124B6E
:100EE0005A68124B13404B600F4A0F4B1B6823F09C
:100EF000847323F4803313600B4A0B4B1B6823F479
:100F000080231360084A084B5B6823F4FE03536098
:100F1000054B4FF41F029A6000F00CF8044B4FF0A1
:100F200000629A6000BF80BD001002400000FFF820
:100F300000ED00E080B500AF00F002F800BF80BD1A
:100F400080B483B000AF00237B6000233B603A4A4B
:100F5000394B1B6843F480331360374B1B6803F431
:100F600000333B607B6801337B603B68002B03D11F
:100F70007B68B3F5A06FF0D12F4B1B6803F40033EF
:100F8000002B02D001233B6001E000233B603B6863
:100F9000012B4BD1294A294B1B6843F010031360E6
:100FA000264A264B1B6823F003031360234A234B76
:100FB0001B6843F0020313601F4A1F4B5B685360BA
:100FC0001D4A1D4B5B6853601B4A1B4B5B6843F417
:100FD00080635360184A184B5B6823F47C1353609A
:100FE000154A154B5B6843F4E8135360124A124BE1
:100FF0001B6843F08073136000BF0F4B1B6803F046
:101000000073002BF9D00C4A0B4B5B6823F00303F1
:101010005360094A084B5B6843F00203536000BF0A
:10102000054B5B6803F00C03082BF9D100BF0C37AC
:10103000BD4680BC704700BF001002400020024047
:1010400008B5074B044613B10021AFF30080054BF0
:101050001868836A03B19847204600F033F800BF50
:1010600000000000E81000080E4B70B51E460E4C44
:101070000025E41AA410A54204D056F8253098475C
:101080000135F8E700F020F8084B094C1E46E41A39
:10109000A4100025A54204D056F825309847013504
:1010A000F8E770BD74000020740000207400002078
:1010B0007800002003460244934202D003F8011B4B
:1010C000FAE77047FEE70000F8B500BFF8BC08BCBF
:1010D0009E467047F8B500BFF8BC08BC9E467047F6
:1010E000313233340A0043001400002000000000B5
:0810F00058F0FF7F0100000031
:1010F80000000000010203040102030406070809B6
:1011080002040608000000000000000000000000C3
:1011180000000000000000000000000000000000C7
:1011280000000000E61000080000000000000000B9
:1011380000000000000000000000000000000000A7
:101148000000000000000000000000000000000097
:101158000000000000000000000000000000000087
:0C1168000000000011010008ED0000086C
:0400000508000000EF
:00000001FF
